{
  "contractName": "Mortal",
  "abi": [
    {
      "inputs": [],
      "payable": false,
      "stateMutability": "nonpayable",
      "type": "constructor"
    },
    {
      "constant": false,
      "inputs": [],
      "name": "kill",
      "outputs": [],
      "payable": false,
      "stateMutability": "nonpayable",
      "type": "function"
    }
  ],
  "bytecode": "0x608060405234801561001057600080fd5b50336000806101000a81548173ffffffffffffffffffffffffffffffffffffffff021916908373ffffffffffffffffffffffffffffffffffffffff160217905550610114806100606000396000f300608060405260043610603f576000357c0100000000000000000000000000000000000000000000000000000000900463ffffffff16806341c0e1b5146044575b600080fd5b348015604f57600080fd5b5060566058565b005b6000809054906101000a900473ffffffffffffffffffffffffffffffffffffffff1673ffffffffffffffffffffffffffffffffffffffff163373ffffffffffffffffffffffffffffffffffffffff16141560e6576000809054906101000a900473ffffffffffffffffffffffffffffffffffffffff1673ffffffffffffffffffffffffffffffffffffffff16ff5b5600a165627a7a7230582088d502f4b0f220694ac737b6fc405ef23f885fe9b10108a859184f857707599e0029",
  "source": "pragma solidity 0.4.24;\n\ncontract Mortal {\n    /* Define variable owner of the type address */\n    address internal owner;\n\n    /* This function is executed at initialization and sets the owner of the contract */\n    constructor() public { owner = msg.sender; }\n\n    /* Function to recover the funds on the contract */\n    function kill() public { if (msg.sender == owner) selfdestruct(owner); }\n}\n\ncontract Greeter is Mortal {\n    /* Define variable greeting of the type string */\n    string private greeting;\n    uint32 private myNumber;\n\n    /* This runs when the contract is executed */\n    constructor(string _greeting) public {\n        greeting = _greeting;\n        myNumber = 0;\n    }\n\n    /* greet function */\n    function greet() public view returns (string) {\n        return greeting;\n    }\n\n    /* getOwner function */\n    function getOwner() public view returns (address) {\n        return owner;\n    }\n\n    /* setMyNumber function */\n    function setMyNumber(uint32 value) public {\n        myNumber = value;\n    }\n\n    /* getMyNumber function */\n    function getMyNumber() public view returns (uint32) {\n        return myNumber;\n    }\n}\n",
  "sourcePath": "/Users/rahulgolash/Rahul/Ledgerium/CoreLedgerium/testOpenZeppelinContracts/contracts/Greeter.sol",
  "compiler": {
    "name": "solc",
    "version": "0.4.24+commit.e67f0147.Emscripten.clang"
  },
  "schemaVersion": "2.0.0",
  "updatedAt": "2018-10-31T10:23:17.883Z"
}